:020000040800F2
:100000000000022029060008790600087906000889
:10001000790600087906000879060008000000004B
:10002000000000000000000000000000110E0008A9
:100030007906000800000000B10E00087B060008E9
:100040007906000879060008790600087906000894
:100050007906000879060008790600087906000884
:100060007906000879060008790600087906000874
:100070007906000879060008790600087906000864
:1000800079060008790600087906000800000000DB
:1000900000000000000000000000000079060008D9
:1000A0007906000879060008790600087906000834
:1000B0007906000879060008790600087906000824
:1000C0007906000879060008790600087906000814
:1000D0007906000879060008810300080000000086
:1000E000790600087906000879060008000000007B
:1000F0000000000000000000000000007906000879
:10010000000000007906000879060008790600085A
:1001100000000000000000000000000000000000DF
:1001200079060008790600087906000879060008B3
:100130007906000800000000000000000000000038
:100140000000000000000000000000007906000828
:100150007906000879060008790600087906000883
:100160007906000879060008000000000000000081
:10017000000000000000000000000000000000007F
:1001800000000000790600080000000000000000E8
:08019000790600087906000859
:1001A00010B5054C237833B9044B13B10448AFF3B1
:1001B00000800123237010BD6805002000000000AE
:1001C000D02E000808B5034B1BB103490348AFF319
:1001D000008008BD000000006C050020D02E000843
:1001E000034613F8012B002AFBD1181A0138704777
:1001F00008B5054A536983F0200353614FF47A70C0
:1002000000F0D1FAF5E700BF00000240114A136B7D
:1002100043F005031363104B1A6822F0F0021A60D2
:100220001A6842F0A0021A601A6A22F47F421A6227
:100230001A6A42F4EE421A621A6822F440621A60A4
:100240001A6842F480621A605A6942F020025A61C8
:10025000704700BF00380240000002400F4A136C94
:1002600043F4003313640E4B1A680E4BA3FB0232A7
:10027000120C0D4B9A60DA6842F00C02DA60DA6810
:1002800042F02002DA60DA6842F40052DA60074B8A
:10029000602283F8262340225A60704700380240CB
:1002A00000000020C5B3A2910044004000E100E03E
:1002B00010B504460C4B1B889BB2002BFAD120468C
:1002C000FFF78EFF80B2084B18801A8892B2214641
:1002D000064802F04DFC064B00221A80054AD368FE
:1002E00043F08003D36010BD840500208805002002
:1002F000860500200044004000B585B014E01A488F
:10030000FFF7D6FF4FF0FF330022012117480068A6
:1003100000F0A6FAFE238DF80C3000231A4603A93C
:100320001348006800F021FB4FF0FF3300220DF16D
:1003300007011048006800F05AFB0028F4D1FF23A1
:100340008DF8083000231A4602A90948006800F019
:100350000CFB9DF80730312B03D0302BCFD0064853
:10036000CEE70648CCE700BFFC2E000808060020B8
:100370000C06002010060020182F0008E82E0008A8
:1003800000B583B02B4B1B6813F0200F04D0294B12
:10039000DB6813F0200F28D1264B1B6813F0800F69
:1003A00016D0244BDB6813F0800F11D0224B1A8833
:1003B00092B2224B1B889BB29A4223D21E490B88D1
:1003C0009BB25A1C92B20A801D4AD25C194B5A60E9
:1003D000184B1B6813F0400F04D0164BDB6813F06A
:1003E000400F19D103B05DF804FB124B5B688DF828
:1003F000073000231A460DF107011248006800F08B
:10040000B4FAC9E70B4BDA6822F08002DA60DA68E6
:1004100042F04002DA60DBE7064AD36823F040038B
:10042000D360064B00221A800121074B186800F0A8
:10043000EAF9D7E700440040860500208405002043
:1004400088050020100600200806002008B5164A7E
:10045000136843F480331360134B1B6813F4003F9D
:10046000FAD0114B114A5A601A6842F080721A6031
:100470000D4B1B6813F0007FFAD00D4A136843F050
:1004800005031360084B9A6842F414429A609A6814
:1004900042F002029A60044B9B6803F00C03082BA5
:1004A000F9D100F071F808BD003802400854400747
:1004B000003C024008B5FFF7C9FFFFF7A7FEFFF7B2
:1004C000CDFE00F0E7F800220121402000F002FA02
:1004D0000F4B186000220121102000F0FBF90D4B9A
:1004E0001860002000F06DF90B4B186000221146D7
:1004F0000A4800F0FDF80A4B18600022114609482E
:1005000000F0F6F8084B186000F0D6F8FEE700BFE0
:10051000100600200C06002008060020F902000842
:1005200018060020F10100081406002010B503464B
:100530000C4A0D490D48006840B10C48006803445E
:10054000521A934206D8094A136010BD0748084C56
:100550000460F2E702F0E0FA0C2303604FF0FF3092
:10056000F3E700BF00000220000400001C0600208A
:10057000F8540020034AD2F8883043F47003C2F8DC
:100580008830704700ED00E0224B9B6803F00C03BD
:10059000042B11D0082B13D0002B37D11E4B1F4A30
:1005A0001A601C4B9B68C3F303131D4AD15C1A4AA3
:1005B0001368CB4013607047174B1A4A1A60F0E774
:1005C000144B59685A6802F03F0211F4800F13D09F
:1005D000144BB3FBF2F30F4A5268C2F3881202FBCA
:1005E00003F30C4A5268C2F3014201325200B3FBDA
:1005F000F2F3094A1360D4E7084BB3FBF2F3054A60
:100600005268C2F3881202FB03F3EAE7024B034A83
:100610001A60C6E700380240000000200024F40001
:10062000442F000840787D01DFF834D0FFF7A2FFA7
:100630000C480D490D4A002302E0D458C45004333D
:10064000C4188C42F9D30A4A0A4C002301E0136013
:100650000432A242FBD302F065FAFFF72BFF70478A
:10066000000002200000002064050020682F000820
:1006700068050020F8540020FEE708B54FF0E0239D
:100680001B6901F06BFF012800D108BD00F042FC9E
:10069000FBE70000EFF305832BB9064B186828B978
:1006A00001221A6070476FF0050070474FF0FF306D
:1006B000704700BF600F0020EFF3058373B90A4B4A
:1006C0001B68012B0DD110B50024084BDC77064BBD
:1006D00002221A6001F020FC204610BD6FF00500D8
:1006E00070474FF0FF307047600F002000ED00E0D2
:1006F000F0B587B000240594EFF305840CBB00B37C
:10070000002A35D0156893692BB11E46013B372B63
:1007100002D9002016E01826536813F0010F40D1CB
:1007200054698CB14FEA940C936833B1D768B7F52C
:10073000D07F02D3176907B184B943B14FF0FF33BB
:100740000BB3059807B0F0BD4FF0800CECE7D36811
:10075000A3B91369ABB14FF0FF33F1E702930197EF
:1007600000960B466246294601F066FB0590E8E7D5
:100770001546002318264FF0800CE1E74FF0FF33B9
:10078000DEE70023DCE705AB019300960B461FFA7A
:100790008CF2294601F08DFB0128D2D0002305936D
:1007A000CFE70020CEE708B5EFF3058333B908B9EA
:1007B000002008BD01F01CFD0020FAE76FF00500E5
:1007C000F7E708B5EFF30583CBB9A0B1836813B1A0
:1007D000C2681F2A0BD82BB14FF0FF338BB900F042
:1007E00091F908BDC36843B14FF0FF33F6E71846EF
:1007F00000F063F9F5E70023F0E70023EEE70020BF
:10080000EFE70020EDE7F8B110B582B00C46B1F18A
:10081000807F1CD2EFF305829AB10022019201AAD7
:1008200000F04EFAB8B1019BC3B14FF0E0234FF096
:100830008052C3F8042DBFF34F8FBFF36F8F204654
:1008400007E000F0F2F904E06FF0030070476FF08A
:10085000030002B010BD6FF00200FAE72046F8E78F
:1008600040B370B582B00C461D468446B1F1807F1E
:1008700023D2EFF3058323BB12F0010610D001232E
:1008800012F0020F0ED0002200952146604600F0C3
:1008900047F94EB1844312D0B5B16FF001000EE0BC
:1008A0000023EDE70122EFE7044208D17DB16FF0AC
:1008B000010004E06FF0030070476FF0030002B026
:1008C00070BD6FF00500FAE76FF00200F7E76FF018
:1008D0000200F4E770B582B0EFF30583002B3AD144
:1008E000144600283BD000293BD06AB393684BB133
:1008F000D2684F2A06D9226922B101FB00F5666948
:10090000AE421BD273B14FF0FF3363BB002200F045
:1009100046FE054605B304B124682146284601F089
:1009200093F819E0E3688BB9236913B14FF0FF33F3
:10093000EBE763696BB14FF0FF33E6E70025009505
:1009400000F0E3FD0546E5E70023DEE74FF0FF3367
:10095000DBE70023D9E70025284602B070BD00255B
:10096000FAE70025F8E70025F6E710B582B01C4647
:10097000EFF30583C3B118B329B33CBB0023019344
:1009800001AA00F0F4FE012823D1019850B14FF0E4
:10099000E0234FF08052C3F8042DBFF34F8FBFF315
:1009A0006F8F002002B010BDB0B1C1B1002322464C
:1009B00000F019FE012815D0B4B16FF00100F1E785
:1009C0006FF00300EEE76FF00300EBE76FF003005A
:1009D000E8E76FF00200E5E76FF00300E2E76FF091
:1009E0000300DFE70020DDE76FF00200DAE710B573
:1009F00082B01C46EFF30583C3B110B321B334BBFF
:100A00000023019301AA00F0C8FF012822D1019818
:100A100050B14FF0E0234FF08052C3F8042DBFF3E4
:100A20004F8FBFF36F8F002002B010BDA8B1B9B1D6
:100A3000224600F003FF012815D0B4B16FF0010089
:100A4000F2E76FF00300EFE76FF00300ECE76FF001
:100A50000300E9E76FF00200E6E76FF00300E3E769
:100A60006FF00300E0E70020DEE76FF00200DBE755
:100A7000034B0360034B0B6080231360704700BF80
:100A8000C00D0020C00B0020034B0360034B0B6024
:100A90004FF4807313607047200A00202006002066
:100AA0001AB9084205D110467047814303D000208F
:100AB0007047012070470120704780B110B582B0A7
:100AC000044620230193019B202B11D04FF05003AB
:100AD00083F31188BFF36F8FBFF34F8FFEE74FF0A3
:100AE000500383F31188BFF36F8FBFF34F8FFEE77F
:100AF000002340F8043B00F0EDF801232377204663
:100B000002B010BD38B5202000F04CFB044628B1DF
:100B1000002540F8045B00F0DDF82577204638BD5D
:100B200088B12DE9F0410C4616461D460746B1F145
:100B3000807F11D34FF0500383F31188BFF36F8F81
:100B4000BFF34F8FFEE74FF0500383F31188BFF3DD
:100B50006F8FBFF34F8FFEE741B94FF0500383F320
:100B60001188BFF36F8FBFF34F8FFEE701F0F6FCE4
:100B700050B9069B43B14FF0500383F31188BFF384
:100B80006F8FBFF34F8FFEE701F01CFAD7F800809C
:100B90002A4621464046FFF783FFF8B18EB328EA84
:100BA00004033B600023069301F0A6FA069B93B171
:100BB00048B94FF0E0234FF08052C3F8042DBFF343
:100BC0004F8FBFF36F8F01F021FD804610F0007F43
:100BD0001AD028F07F484046BDE8F081069B002BE4
:100BE000E2D05EB900210DB141F08061069A214347
:100BF000381D01F08DFB4FF00008D5E74FF08071F4
:100C0000F1E700230693CFE700F014F9D7F800804E
:100C10002A4621464046FFF743FF18B116B128EA9D
:100C200004043C6000F028F9D3E7F8B568B10D463C
:100C30000446B1F1807F11D34FF0500383F3118844
:100C4000BFF36F8FBFF34F8FFEE74FF0500383F377
:100C50001188BFF36F8FBFF34F8FFEE700F10C06D3
:100C600001F0B0F9206923682B43236000270AE0D4
:100C7000216832EA010105D111E0216841F00071DB
:100C800001F0D4FB2846B0420ED04568036823F03B
:100C90007F4213F0806FEBD121681142F2D013F044
:100CA000807FEAD01743E8E7236823EA070323603D
:100CB00001F022FA2068F8BD08B5FFF7B6FF08BDBD
:100CC00008B513460A460146014801F0D5FE08BDA5
:100CD000B90C000800F1080343604FF0FF32826056
:100CE000C360036100230360704700230361704702
:100CF00043684B609A688A60516099600861036834
:100D000001330360704730B40D68B5F1FF3F11D077
:100D100000F108031C465B681A68AA42FAD96368A6
:100D20004B6099608C606160086103680133036007
:100D300030BC70470469F2E70369416882688A60E1
:100D4000416851605A68824206D0002202611A68E6
:100D5000013A1A601868704782685A60F5E7000027
:100D600082B0002301930D4B1B68B3F1FF3F08D005
:100D70004FF0500383F31188BFF36F8FBFF34F8F92
:100D8000FEE74FF0500383F31188BFF36F8FBFF37B
:100D90004F8F019B002BFCD002B070470400002055
:100DA00008480068006880F308884FF0000080F36E
:100DB000148862B661B6BFF34F8FBFF36F8F00DF49
:100DC00000BF000008ED00E0DFF80C00016841F40E
:100DD000700101607047000088ED00E04FF0807303
:100DE00040F8043C21F0010140F8081C054B40F894
:100DF0000C3C40F8202C6FF0020340F8243C4438AF
:100E0000704700BF610D00080000000000000000F6
:100E1000074B19680868B0E8F04F80F30988BFF302
:100E20006F8F4FF0000080F311887047AFF30080A0
:100E3000C85000204FF0500383F31188BFF36F8F29
:100E4000BFF34F8F0B4A136801331360012B00D09F
:100E500070474FF0E023D3F8043D13F0FF0FF7D0B5
:100E60004FF0500383F31188BFF36F8FBFF34F8FA1
:100E7000FEE700BF04000020094B1B6843B94FF098
:100E8000500383F31188BFF36F8FBFF34F8FFEE7DB
:100E9000013B034A13600BB983F31188704700BF0D
:100EA000040000200000000000000000000000001E
:100EB000EFF30980BFF36F8F154B1A681EF0100F08
:100EC00008BF20ED108A20E9F04F10602DE90900DD
:100ED0004FF0500080F31188BFF34F8FBFF36F8F37
:100EE00001F0ACF94FF0000080F3118809BC1968DB
:100EF0000868B0E8F04F1EF0100F08BFB0EC108A81
:100F000080F30988BFF36F8F704700BFAFF3008095
:100F1000C850002008B54FF0500383F31188BFF389
:100F20006F8FBFF34F8F01F05BF828B14FF0E023D4
:100F30004FF08052C3F8042D002383F3118808BDBD
:100F40004FF0E022002313619361054B1B680549B4
:100F5000A1FB03139B09013B5361072313617047F6
:100F600000000020D34D62104FF0E023D3F8002D95
:100F70003D4B9A421CD04FF0E023D3F8002D3B4B61
:100F80009A421ED030B583B0394B1A78D2B2019252
:100F9000FF221A701B78DBB28DF803309DF8033006
:100FA00003F05003334A1370334B07221A601BE0DF
:100FB0004FF0500383F31188BFF36F8FBFF34F8F50
:100FC000FEE74FF0500383F31188BFF36F8FBFF339
:100FD0004F8FFEE7284A1368013B13609DF80330EA
:100FE0005B00DBB28DF803309DF8033013F0800F07
:100FF000F0D1214B1B68032B08D04FF0500383F333
:101000001188BFF36F8FBFF34F8FFEE71B021A4AA1
:10101000136003F4E0631360019BDBB2144A1370A6
:101020004FF0E024D4F8203D43F47003C4F8203D91
:10103000D4F8203D43F07043C4F8203DFFF780FF13
:1010400000250E4B1D60FFF7BFFED4F8343F43F080
:101050004043C4F8343FFFF7A3FE01F0EFF8FFF779
:101060007FFE284603B030BD71C20F4170C20F41F0
:1010700000E400E0680F0020640F0020040000205E
:10108000EFF305830F2B0FD9114A9B5CDBB2114A9A
:1010900012789A4208D94FF0500383F31188BFF3B6
:1010A0006F8FBFF34F8FFEE74FF0E023D3F80C3D77
:1010B00003F4E063084A1268934208D94FF05003E2
:1010C00083F31188BFF36F8FBFF34F8FFEE7704735
:1010D000F0E300E0680F0020640F0020124A12F0D5
:1010E000070F1ED0D11D21F00701C1F57053134425
:1010F0000A460E480260002141601344083B23F079
:1011000007030B48036059601960991A5160136016
:10111000084B1960084B1960084B4FF000421A60E9
:1011200070474FF47053E4E78C0F0020840F0020C9
:10113000800F0020780F00207C0F00206C0F002013
:10114000164B1A461B688342FBD3516802EB010C15
:10115000844509D0416800EB010C634509D0036068
:10116000904219D0106070474068014451601046A9
:10117000F0E710B40A4C2468A3420BD05B68194412
:10118000416013681B680360904200D010605DF8F6
:10119000044B70470460F7E7704700BF840F0020DE
:1011A000800F002038B5044600F00CFF384B1B6858
:1011B000B3B1384B1B681C4250D1002C50D004F105
:1011C000080214F0070F02D022F007020832002AAA
:1011D00055D0314B1B68934253D330490C6804E01F
:1011E000FFF77CFFE5E721461C466368934202D285
:1011F0002368002BF7D1264B1B68A34243D00D6810
:10120000083523680B6063689B1A102B10D9A0184F
:1012100010F0070F08D04FF0500383F31188BFF38D
:101220006F8FBFF34F8FFEE743606260FFF788FF69
:10123000626819490B689B1A0B60194909688B424F
:1012400001D217490B60134B1B68134363600023E3
:101250002360144A13680133136002E0002500E0A4
:10126000002500F049FF15F0070F0ED04FF0500396
:1012700083F31188BFF36F8FBFF34F8FFEE7002515
:10128000EFE70025EDE70025EBE7284638BD00BF76
:10129000800F00206C0F00207C0F0020840F0020A6
:1012A000780F0020740F0020002834D038B5044691
:1012B000A0F1080550F8043C174A1268134208D1FF
:1012C0004FF0500383F31188BFF36F8FBFF34F8F3D
:1012D000FEE750F8081C41B14FF0500383F311882A
:1012E000BFF36F8FBFF34F8FFEE723EA020340F88F
:1012F000043C00F067FE54F8041C084A13680B44D1
:1013000013602846FFF71CFF054A1368013313607A
:1013100000F0F2FE38BD70476C0F00207C0F0020FB
:10132000700F002010B50446FFF784FDA26BE36B3D
:101330009A4204D00024FFF79FFD204610BD0124EF
:10134000F9E710B50446FFF775FDA36B23B9012437
:10135000FFF792FD204610BD0024F9E770B5044662
:101360001546866B026C5AB903681BB10020013622
:10137000A66370BD806801F001F90023A360F6E761
:101380006DB9406801F0F4FB6368226C134463603C
:10139000A268934219D3236863602846E7E7C068D0
:1013A00001F0E6FBE368226C51429B1AE36022687D
:1013B000934202D2A3680B44E360022D01D00020C7
:1013C000D5E726B1013E0020D1E72846CFE700202F
:1013D000CDE70346026C6AB110B50846D9681144DE
:1013E000D9609C68A14201D31968D960D96801F01D
:1013F000BFFB10BD704738B50546FFF71BFD95F8DC
:10140000454064B201E0013C64B2002C0ADD6B6A25
:1014100043B105F1240000F0C3FF0028F3D001F030
:1014200097F8F0E7FF2385F84530FFF725FDFFF734
:1014300001FD95F8444064B201E0013C64B2002C27
:101440000ADD2B6943B105F1100000F0A9FF002867
:10145000F3D001F07DF8F0E7FF2385F84430FFF783
:101460000BFD38BD38B5E0B10D460446FFF7E2FC90
:101470002368E26B216C01FB0230A0600020A063B6
:101480006360013A02FB0133E360FF2384F84430D8
:1014900084F84530FDB9236963B9FFF7EDFC0120FD
:1014A00038BD4FF0500383F31188BFF36F8FBFF344
:1014B0004F8FFEE704F1100000F072FF0028ECD01F
:1014C0004FF0E0234FF08052C3F8042DBFF34F8F4D
:1014D000BFF36F8FE1E704F11000FFF7FBFB04F1AE
:1014E0002400FFF7F7FBD8E738B51D46049C0B46F0
:1014F00049B92460E063236401212046FFF7B2FF6D
:1015000084F84C5038BD2260F4E740B94FF05003E6
:1015100083F31188BFF36F8FBFF34F8FFEE710B5D2
:1015200084B01C46844653B192B189B94FF0500340
:1015300083F31188BFF36F8FBFF34F8FFEE74FF038
:10154000500383F31188BFF36F8FBFF34F8FFEE714
:101550006AB150230393039B502B13D04FF05003D9
:1015600083F31188BFF36F8FBFF34F8FFEE700291E
:10157000EFD04FF0500383F31188BFF36F8FBFF3A9
:101580004F8FFEE7039B012384F8463000949DF8BB
:1015900018306046FFF7A8FF204604B010BD40B9E0
:1015A0004FF0500383F31188BFF36F8FBFF34F8F5A
:1015B000FEE7F0B583B00D461446064601FB00F089
:1015C0005030FFF7EFFD074650B1002380F846305A
:1015D0000090234600F1500229463046FFF784FF71
:1015E000384603B0F0BDF0B585B0019288B10F4622
:1015F0001D460446B1B1022D20D1E36B012B1DD055
:101600004FF0500383F31188BFF36F8FBFF34F8FF9
:10161000FEE74FF0500383F31188BFF36F8FBFF3E2
:101620004F8FFEE7036C002BE5D04FF0500383F3A0
:101630001188BFF36F8FBFF34F8FFEE700F08EFF6F
:10164000064658B9019B002B48D04FF0500383F356
:101650001188BFF36F8FBFF34F8FFEE700263DE089
:101660002A4639462046FFF779FE636A7BB948B1BE
:101670004FF0E0234FF08052C3F8042DBFF34F8F9B
:10168000BFF36F8FFFF7F8FB012005B0F0BD04F149
:10169000240000F085FE0028F4D04FF0E0234FF046
:1016A0008052C3F8042DBFF34F8FBFF36F8FE9E76C
:1016B000FFF7E2FB0020E8E702A800F0FBFE0126AE
:1016C00019E0002384F8443021E0002384F84530F9
:1016D00023E02046FFF78FFE00F00EFDFFF7AAFB88
:1016E000A26BE36B9A42BBD3022DB9D0019B002BB6
:1016F000DED0002EE0D0FFF7BFFB00F063FCFFF769
:1017000099FB94F8442052B2B2F1FF3FD9D094F83B
:10171000452052B2B2F1FF3FD7D0FFF7ADFB01A990
:1017200002A800F0D3FED8B92046FFF7FBFD002841
:10173000CFD0019904F1100000F0D2FD2046FFF750
:101740005AFE00F0D9FC0028C8D14FF0E0234FF03A
:101750008052C3F8042DBFF34F8FBFF36F8FBDE7E7
:101760002046FFF748FE00F0C7FC00208DE72DE97A
:10177000F84390B10F4616461C460546B1B1022CFF
:1017800020D1EB6B012B1DD04FF0500383F3118858
:10179000BFF36F8FBFF34F8FFEE74FF0500383F31C
:1017A0001188BFF36F8FBFF34F8FFEE7036C002BE1
:1017B000E5D04FF0500383F31188BFF36F8FBFF371
:1017C0004F8FFEE7FFF75CFCEFF311884FF05003FB
:1017D00083F31188BFF36F8FBFF34F8FAA6BEB6B4F
:1017E0009A4206D3022C04D0002088F31188BDE869
:1017F000F88395F845904FFA89F9AB6B2246394644
:101800002846FFF7ABFDB9F1FF3F06D009F1010310
:101810005BB285F845300120E7E76B6A0BB9012020
:10182000E3E705F1240000F0BBFD18B126B101206B
:101830003060DAE70120D8E70120D6E7F0B585B0BF
:10184000019290B10F460446C1B100F087FE0646F2
:1018500000BB019B002B5ED04FF0500383F3118837
:10186000BFF36F8FBFF34F8FFEE74FF0500383F34B
:101870001188BFF36F8FBFF34F8FFEE7036C002B10
:10188000E3D04FF0500383F31188BFF36F8FBFF3A2
:101890004F8FFEE700263EE039462046FFF799FDD0
:1018A000013DA563236923B9FFF7E6FA012005B0DE
:1018B000F0BD04F1100000F073FD0028F4D04FF0EB
:1018C000E0234FF08052C3F8042DBFF34F8FBFF3D6
:1018D0006F8FE9E7FFF7D0FA0020E8E702A800F0F1
:1018E000E9FD012621E0002384F8443029E00023AB
:1018F00084F845302BE02046FFF77DFD00F0FCFB2F
:1019000009E02046FFF777FD00F0F6FB2046FFF7E1
:1019100018FD00283FD1FFF78DFAA56B002DBBD134
:10192000019B002BD6D0002ED8D0FFF7A5FA00F0EF
:1019300049FBFFF77FFA94F844305BB2B3F1FF3F05
:10194000D1D094F845305BB2B3F1FF3FCFD0FFF771
:1019500093FA01A902A800F0B9FD0028D1D12046D0
:10196000FFF7EFFC0028C6D0019904F1240000F035
:10197000B7FC2046FFF73FFD00F0BEFB0028CAD1B0
:101980004FF0E0234FF08052C3F8042DBFF34F8F88
:10199000BFF36F8FBFE7002089E72DE9F843B0B1AF
:1019A0000D4690460446D9B1FFF76AFBEFF3118765
:1019B0004FF0500383F31188BFF36F8FBFF34F8F46
:1019C000A66BCEB9002087F31188BDE8F8834FF0ED
:1019D000500383F31188BFF36F8FBFF34F8FFEE780
:1019E000036C002BE0D04FF0500383F31188BFF35A
:1019F0006F8FBFF34F8FFEE794F844904FFA89F949
:101A000029462046FFF7E5FC731EA363B9F1FF3FAB
:101A100006D009F101035BB284F844300120D2E71B
:101A200023690BB90120CEE704F1100000F0B8FCE7
:101A300030B1B8F1000F05D00120C8F80000C2E7AE
:101A40000120C0E70120BEE70023072B0CD8074A7E
:101A500052F833200AB10133F7E7044A42F8331051
:101A600002EBC30250607047704700BF8C4B0020F0
:101A700070B504460D461646FFF7DCF994F844307D
:101A80005BB2B3F1FF3F0DD094F845305BB2B3F1D8
:101A9000FF3F0BD0FFF7F0F9A36B5BB12046FFF7D8
:101AA000AAFC70BD002384F84430EDE7002384F8DD
:101AB0004530EFE73246294604F1240000F054FC9B
:101AC000ECE70000084B1B681B6823B9074B4FF07D
:101AD000FF321A607047044B1B68DB68DB685A688A
:101AE000024B1A60704700BF3C4C0020D44B0020D2
:101AF0002DE9F04780460D4617469946089EDDF8C9
:101B000024A00A9C9200A521206B00F0C9FF236B42
:101B100007F18042013A03EB820727F00707002D07
:101B200061D04FF0000CBCF10F0F09D815F80C3044
:101B300004EB0C0282F8343013B10CF1010CF2E723
:101B4000002384F84330372E00D93726E662E66456
:101B500000252565201DFFF7C8F804F11800FFF7E0
:101B6000C4F82461C6F13806A6616462C4F89851CD
:101B700084F89C514FF4A072294604F1580000F0FB
:101B80008FFF1B4BE36503F168022266D033636667
:101B900001220023C4E93C2343F20E33A4F8F830B9
:101BA0004AF6CD33A4F8FA3041F23423A4F8FC30DD
:101BB0004EF26D63A4F8FE304DF6EC63A4F80031EC
:101BC0000523A4F802310B23A4F804314A46414608
:101BD0003846FFF703F92060BAF1000F01D0CAF8C8
:101BE0000040BDE8F087002384F83430ABE700BF45
:101BF000F851002038B5002407E004EB840293007C
:101C00000E481844FFF766F80134372CF5D90C4D0F
:101C10002846FFF75FF80B4C2046FFF75BF80A48B1
:101C2000FFF758F80948FFF755F80948FFF752F849
:101C3000084B1D60084B1C6038BD00BF684C00207D
:101C4000544C0020404C0020244C0020104C00201C
:101C5000F84B00203C4C0020384C002010B50446C6
:101C6000FFF7E8F8224A136801331360214B1B6821
:101C70005BB1214B1B686BB91E4B1B68DA6AE36AC8
:101C80009A4207D81B4B1C6004E01A4B1C60136877
:101C9000012B29D0194A1368013313606364E06A89
:101CA000174B1B68984201D9154B186000EB800058
:101CB000211D144B03EB8000FFF71AF8FFF7DCF847
:101CC0000D4B1B687BB10B4B1B68DA6AE36A9A42C7
:101CD00009D24FF0E0234FF08052C3F8042DBFF338
:101CE0004F8FBFF36F8F10BDFFF784FFD2E700BFA8
:101CF000F44B0020C8500020E84B0020D84B0020B7
:101D0000EC4B0020684C002010B50446583000F021
:101D1000CFFE94F89D3163B1012B11D0022B0ED070
:101D20004FF0500383F31188BFF36F8FBFF34F8FD2
:101D3000FEE7206BFFF7B8FA2046FFF7B5FA10BDB3
:101D40002046FFF7B1FAFAE70F4B1B68D3B110B585
:101D5000FFF770F80D4BDB68DC68201DFEF7ECFF29
:101D60000B4A1368013B1360074A1368013B136079
:101D7000FFF782F82046FFF7C7FF034B1B68002BD5
:101D8000E6D110BD704700BF0C4C0020104C002065
:101D9000F44B002008B5FFF7D7FF074B1B68012B5A
:101DA000F9D94FF0E0234FF08052C3F8042DBFF370
:101DB0004F8FBFF36F8FEEE7684C002070B504467D
:101DC0000D46174B1E68174B18680430FEF7B4FF1A
:101DD000B4F1FF3F0DD03444124B1B685C60A64247
:101DE00010D9114B18680F4B19680431FEF78BFF9F
:101DF00070BD002DEFD00B4B196804310B48FEF776
:101E000077FFF5E70A4B1868064B19680431FEF7AF
:101E10007AFF084B1B68A342EAD9064B1C60E7E730
:101E2000F04B0020C8500020384C0020F84B002018
:101E30003C4C0020D44B002030B587B00B9C8CB1BB
:101E40000C9DC5B14FF4D0750495049DB5F5D07FB8
:101E50001AD04FF0500383F31188BFF36F8FBFF395
:101E60004F8FFEE74FF0500383F31188BFF36F8F5E
:101E7000BFF34F8FFEE74FF0500383F31188BFF39A
:101E80006F8FBFF34F8FFEE7049D0C9D2C630224E0
:101E900085F89D4100240394029505AC01940A9CA9
:101EA0000094FFF725FE0C98FFF7D8FE059807B0C1
:101EB00030BD2DE9F04385B00746884614461E46DE
:101EC0009000FFF76FF910B381464FF4D070FFF721
:101ED00069F90546A8B1C0F83090002380F89D311B
:101EE000039302900D9B01930C9B00933346224673
:101EF00041463846FFF7FCFD2846FFF7AFFE0120BC
:101F000007E04846FFF7D0F94FF0FF3001E04FF00F
:101F1000FF3005B0BDE8F08310B588B0002405940B
:101F2000069407AA06A905A8FEF7A2FD059B029341
:101F3000069B019300942346079A1A491A48FFF713
:101F40007BFF1A4B1860E8B100F0D8FB01281AD1CA
:101F50004FF0500383F31188BFF36F8FBFF34F8FA0
:101F6000134B1B685833134A1360134B4FF0FF3267
:101F70001A60124B01221A60114B00221A60FEF700
:101F8000F3FF03E00020B0F1FF3F01D008B010BD27
:101F90004FF0500383F31188BFF36F8FBFF34F8F60
:101FA000FEE700BF2C2F0008951D0008D04B002035
:101FB000C850002008000020D44B0020E84B00202F
:101FC000F04B0020024A136801331360704700BFD2
:101FD000CC4B0020014B1868704700BFF04B00202D
:101FE000F8B53A4B1B68002B69D1394B1D68013598
:101FF0001D60C5B9374B1B681B6843B14FF05003D8
:1020000083F31188BFF36F8FBFF34F8FFEE7314A21
:102010001168314B186810601960304A1368013339
:102020001360FFF74FFD2E4B1B68AB423DD90027D5
:102030002C4B1B68DB6A03EB83039A002A4B9B58EB
:10204000012B00D90127294B1B68002B3CD001270D
:102050003AE001271F4B1B681B6843B31D4B1B68ED
:10206000DB68DC6863689D4226D3261D3046FEF798
:1020700063FEA36A1BB104F11800FEF75DFEE36A7C
:102080001B4A1268934201D9194A136003EB830378
:102090009A00314614481044FEF72AFEE26A114BBA
:1020A0001B68DB6A9A42D4D2D4E70027D2E70C4BF4
:1020B0004FF0FF321A60BBE7094A1360B8E70D4AD8
:1020C00013680133136000273846F8BDCC4B00205D
:1020D000F04B00203C4C0020384C0020DC4B002012
:1020E000D44B0020C8500020684C0020E04B00205A
:1020F000EC4B0020E44B002038B5354B1B6843B94E
:102100004FF0500383F31188BFF36F8FBFF34F8FEE
:10211000FEE7FEF78FFE2E4B1A68013A1A601B6825
:10212000002B4FD12B4B1B680BB900244BE0002434
:10213000294B1B681BB3284BDB68DC6804F11800D3
:10214000FEF7FAFD251D2846FEF7F6FDE06A234B53
:102150001B68984201D9214B186000EB800029468A
:102160001F4B03EB8000FEF7C3FDE26A1D4B1B68AB
:10217000DB6A9A42DCD31C4B01221A60D8E70CB10F
:10218000FFF7A0FC194B1C6884B9174B1C68D4B12D
:102190004FF0E0234FF08052C3F8042DBFF34F8F70
:1021A000BFF36F8F01240EE0013C07D0FFF718FF4B
:1021B0000028F9D00C4B01221A60F5E70B4B0022E6
:1021C0001A60E2E70024FEF757FE204638BD00BF44
:1021D000CC4B0020F44B0020244C0020EC4B002082
:1021E000684C0020C8500020E04B0020E44B002049
:1021F00010B5A8B10446104B1B6843B14FF0500313
:1022000083F31188BFF36F8FBFF34F8FFEE7FFF7A4
:10221000D9FE00212046FFF7D1FDFFF76DFF48B939
:102220004FF0E0234FF08052C3F8042DBFF34F8FDF
:10223000BFF36F8F10BD00BFCC4B0020224B1B683B
:102240001BB1224B01221A607047204B00221A60FA
:102250001F4B1B6803EB83018A001E498A585AB939
:102260000BB1013BF6E74FF0500383F31188BFF346
:102270006F8FBFF34F8FFEE7084603EB83018A00A1
:10228000024451684968516003EB830C4FEA8C02A9
:102290000832024491420FD003EB830291000D4AB1
:1022A0000A445268D1680C4A116009490B601368EE
:1022B00058330A4A13607047486862469100054ADD
:1022C0000A445060E8E700BFCC4B0020E04B002000
:1022D000EC4B0020684C0020C85000200800002073
:1022E00058B110B50C46094A11681831FEF70BFDBC
:1022F00001212046FFF762FD10BD4FF0500383F32C
:102300001188BFF36F8FBFF34F8FFEE7C8500020D7
:1023100070B110B514460246114B1B688BB94FF0D3
:10232000500383F31188BFF36F8FBFF34F8FFEE726
:102330004FF0500383F31188BFF36F8FBFF34F8FBC
:10234000FEE7084B186841F00041816119681831B7
:102350001046FEF7CDFC01212046FFF72FFD10BDF2
:10236000CC4B0020C850002038B570B10D46144643
:102370000A4A11681831FEF7BBFC0CB14FF0FF356B
:1023800021462846FFF71AFD38BD4FF0500383F36E
:102390001188BFF36F8FBFF34F8FFEE7C850002047
:1023A00038B5C368DC6824B304F118052846FEF785
:1023B000C3FC184B1B682BBB251D2846FEF7BCFC35
:1023C000E06A154B1B68984201D9134B186000EB6B
:1023D00080002946114B03EB8000FEF789FCE26A7E
:1023E0000F4B1B68DB6A9A4211D901200D4B186014
:1023F00038BD4FF0500383F31188BFF36F8FBFF3E5
:102400004F8FFEE729460848FEF772FCE7E70020F9
:10241000EEE700BFCC4B0020EC4B0020684C0020C6
:10242000C8500020E04B0020244C002038B51C4B45
:102430001B6843B94FF0500383F31188BFF36F8FCC
:10244000BFF34F8FFEE741F000410160C468F4B173
:10245000FEF772FC251D2846FEF76EFCE06A114B64
:102460001B68984201D90F4B186000EB8000294689
:102470000D4B03EB8000FEF73BFCE26A0B4B1B6845
:10248000DB6A9A4202D90A4B01221A6038BD4FF02A
:10249000500383F31188BFF36F8FBFF34F8FFEE7B5
:1024A000CC4B0020EC4B0020684C0020C850002092
:1024B000E04B0020034B1B680360034B1B68436029
:1024C000704700BFDC4B0020F04B0020F8B5C8B1CE
:1024D0000C460546F9B1FEF7ADFC1B4B19686B685D
:1024E000C81A2268B2F1FF3F26D0184E36682F680E
:1024F000B74201D08B4224D9824215D800232360F1
:1025000001241AE04FF0500383F31188BFF36F8F5B
:10251000BFF34F8FFEE74FF0500383F31188BFF3F3
:102520006F8FBFF34F8FFEE75B1A1344236028467B
:10253000FFF7C0FF002400E00024FEF79DFC2046CA
:10254000F8BD0124F9E700BFF04B0020DC4B002070
:10255000014B01221A607047E04B0020054B1B68BD
:1025600033B1054B1B680BB1002070470220704748
:1025700001207047E84B0020CC4B002000283BD0C6
:1025800038B504461E4B1B68834208D04FF05003F9
:1025900083F31188BFF36F8FBFF34F8FFEE7036D97
:1025A00043B94FF0500383F31188BFF36F8FBFF32C
:1025B0004F8FFEE7013B0365C16AC26C91421DD09B
:1025C0000BB1002038BD051D2846FEF7B5FBE06CB9
:1025D000E062C0F13803A3610A4B1B68984201D93D
:1025E000084B186000EB80002946074B03EB800086
:1025F000FEF77EFB0120E5E7002070470020E1E7C1
:10260000C8500020EC4B0020684C0020044A13689E
:1026100098691368DB6A1268C3F1380393617047E5
:10262000C8500020064B1A6813682BB901230360B9
:1026300023B9D368186870470023F8E70020704773
:10264000CC51002008B54160006191420CD8D21AEB
:1026500083699A4201D3012008BD011D094B186806
:10266000FEF751FB0020F7E79A4201D2994206D2C9
:10267000011D054B1868FEF746FB0020ECE7012022
:10268000EAE700BFC8510020CC51002030B583B02C
:10269000FEF7D0FB114B1B681BB1FEF7EDFB03B03F
:1026A00030BD0F4D2846FEF715FB0E4C2046FEF7B9
:1026B00011FB0D4B1D600D4B1C60002300930C4B58
:1026C0000C4A10210A20FEF720FF044B1860002856
:1026D000E3D00949FFF7B8F9DFE700BFC451002094
:1026E000E4510020D0510020CC510020C8510020DE
:1026F000CC5000201C510020342F000810B588B0A9
:10270000FFF7C4FF124B1B68CBB10024059406945D
:1027100007AA06A905A8FEF7B7F9059B0293069B31
:102720000193022300932346079A0A490A48FFF7B8
:1027300083FB0A4B186010B1012008B010BD4FF0A8
:10274000500383F31188BFF36F8FBFF34F8FFEE702
:10275000C45100203C2F0008612A0008C05100200D
:10276000B8B19C4603461848006858B300B585B018
:1027700000910192029305291CDCFFF7EFFE02286D
:1027800010D000231A4669460F480068FEF72BFF59
:1027900015E04FF0500383F31188BFF36F8FBFF341
:1027A0004F8FFEE70023069A694607480068FEF748
:1027B0001AFF04E0002362466946FEF7D8FF05B021
:1027C0005DF804FB00207047C451002070B582B052
:1027D0001B4B1B681A6862B3DB681E68DC68251D2A
:1027E0002846FEF7A9FA236A2046984794F828302D
:1027F00013F0040FECD0A36933449E4207D2636008
:10280000246129460E4B1868FEF77DFAE0E70021A7
:1028100000910B4632462046FFF7A2FF0028D7D191
:102820004FF0500383F31188BFF36F8FBFF34F8FC7
:10283000FEE7044A106802490860136002B070BDE8
:10284000CC510020C851002038B50546FFF7C2FB27
:102850000446074B1B68834205D800232B60044BBA
:102860001C60204638BDFFF7B1FF01232B60F6E75F
:10287000BC51002070B582B006460D461749096864
:10288000C968CC68201DFEF757FA94F828C01CF0E0
:10289000040F08D12CF0010C84F828C0236A2046CC
:1028A000984702B070BDA16933462A46314420469C
:1028B000FFF7C8FE0028F1D0002100910B463246F8
:1028C0002046FFF74DFF0028E8D14FF0500383F377
:1028D0001188BFF36F8FBFF34F8FFEE7CC510020FD
:1028E00070B582B006460C46FFF76CFB01A8FFF7F7
:1028F000ABFF019B33BB0546E4B9B04213D222467D
:10290000711B124B1868FFF7B3F8FFF7F5FBD8B946
:102910004FF0E0234FF08052C3F8042DBFF34F8FE8
:10292000BFF36F8F10E0FFF7E7FB29463046FFF754
:10293000A1FF09E0064A126812680AB90124DEE71D
:102940001C46DCE7FFF7D8FB02B070BDC451002085
:10295000C851002010B588B002E0049B002B0FDAAC
:10296000002204A93D4B1868FEF768FF002873D0C9
:10297000049B002BF1DA07990698059B9847ECE732
:10298000069C636913B1201DFEF7D6F903A8FFF773
:102990005BFF049B092BE3D8DFE803F00505053056
:1029A00037500505303794F8283043F0010384F898
:1029B0002830059BA169024619442046FFF742FED4
:1029C0000028CDD0236A2046984794F8283013F089
:1029D000040FC5D0A269002100910B46059802445E
:1029E0002046FFF7BDFE0028BAD14FF0500383F315
:1029F0001188BFF36F8FBFF34F8FFEE794F8283035
:102A000023F0010384F82830AAE794F8283043F033
:102A1000010384F828300599A16131B103460246CB
:102A200001442046FFF70EFE9AE74FF0500383F370
:102A30001188BFF36F8FBFF34F8FFEE794F82830F4
:102A400013F0020F04D023F0010384F8283087E745
:102A50002046FEF729FC83E708B010BDC4510020D2
:102A600000B583B001A8FFF7DDFD0199FFF738FF3E
:102A7000FFF770FFF6E7000010B584B014461A4661
:102A80006FF00103009301900291039400236946C3
:102A900002480068FEF76BFE04B010BDC451002070
:102AA00002440346934200D1704703F8011BF9E743
:102AB000184B1B68834270B504462AD0436C53B14F
:102AC0000025636C595999B90435802DF9D1616C91
:102AD000204600F0C1F8A16B11B1204600F0BCF80F
:102AE000256C5DB1294620462D6800F0B5F8F8E761
:102AF0000E68204600F0B0F83146E4E7E16C11B111
:102B0000204600F0A9F8636B1BB12046BDE8704079
:102B1000184770BD08000020014B1868704700BFBF
:102B20000800002070B50D4D0D4C641BA41000264C
:102B3000A64209D10B4D0C4C00F0CAF9641BA4103D
:102B40000026A64205D170BD55F8043B98470136D2
:102B5000EEE755F8043B98470136F2E75C2F000892
:102B60005C2F00085C2F0008642F00087047704736
:102B70000A44914200F1FF3300D1704710B511F8BB
:102B8000014B03F8014F9142F9D110BD024B13B133
:102B9000024800F005B8704700000000112E000840
:102BA000002301461A46184600F052B92DE9F843B1
:102BB00006460820894600F03FF9244F80463046FB
:102BC00000F00AF9BB685D6825F00305A5F1110462
:102BD000A4EB09044444B4FBF8F4013C08FB04F4FE
:102BE000A04505DD304600F0FDF80020BDE8F88383
:102BF0000021304600F0FCF8BB682B449842F1D12C
:102C00006142304600F0F4F8013010D10021304626
:102C100000F0EEF8BA68831A0F2BE3DD0C4909685F
:102C2000401A0C4943F0010308605360DAE7BB68BF
:102C3000084A2D1B45F001055D60136830461B1BDB
:102C4000136000F0CFF80120D0E700BF5C01002046
:102C5000540100203C530020F8B504460F460029DB
:102C600000F0B18000F0B8F857F8042C564D22F06F
:102C70000100A7F1080303EB000CA968DCF804606D
:102C8000614526F0030602F001021BD106443AB961
:102C900057F8082C9B1A1644D3E90212CA609160B7
:102CA00046F001025A60AB60484B1B68B34204D83F
:102CB000474B20461968FFF779FF2046BDE8F840EA
:102CC00000F090B8CCF80460002A38D157F8081CFE
:102CD0005B1A0844996805F10807B94231D0DF68EA
:102CE000CF60B9600CEB06014968C9070BD4DCF86A
:102CF000081030443ABB374EB14224D1C5E9043301
:102D0000C3E90211012240F0010159601850002A64
:102D1000D3D1B0F5007F1BD2C20801214009814008
:102D2000686801320143696055F8320005EBC20161
:102D30000839C3E9020145F83230C360BDE700221B
:102D4000D0E70122CEE7DCF80C60CE60B160DAE7B4
:102D5000B0F5206F4FEA502214D282093832511C4C
:102D600005EBC20655F831108E4225D10120921094
:102D700000FA02F2686802436A60C3E90216B360AF
:102D8000CB609AE7142A01D85B32E8E7542A02D8CC
:102D9000020B6E32E3E7B2F5AA7F02D8C20B77329C
:102DA000DDE740F254518A429ABF820C7C327E2287
:102DB000D5E789688E4204D04A6822F00302824235
:102DC000F7D8CE68D9E7F8BD5C0100205801002093
:102DD00064530020640100200148FFF7C7BE00BF14
:102DE000345300200148FFF7C2BE00BF3453002017
:102DF00038B5064D0023044608462B60FDF796FBC8
:102E0000431C02D12B6803B1236038BD305300202E
:102E100038B5074D074C641BA4101CB9BDE83840F9
:102E200000F05CB8013C55F824309847F5E700BF46
:102E3000642F0008682F0008082808B506D0FFF79F
:102E40006BFE162303604FF0FF3008BD8020FCE7C7
:102E50002DE9F047DFF874A00646DAF8000098463E
:102E60000F469146FFF782FE164B1C680CB9164CB4
:102E70001C606568DAF800001F2D05DDFFF777FE9E
:102E80004FF0FF30BDE8F0879EB104EB85010122D1
:102E9000C1F88890D4F88831AA401343C4F8883127
:102EA000022EC1F8088102BFD4F88C311343C4F854
:102EB0008C316B1C0235636044F82570FFF757FEB8
:102EC0000020DFE738530020685300205001002025
:102ED000F8B500BFF8BC08BC9E467047F8B500BF07
:082EE000F8BC08BC9E467047D7
:102EE80048656C6C6F2C2053544D33324634313165
:102EF800210D0A00476F6F646279652066726F6DF5
:102F08002053544D333246343131210D0A0000002C
:102F1800556E6B6E6F776E20636F6D6D616E642199
:102F28000D0A000049444C4500000000546D7251E0
:102F380000000000546D722053766300000000000A
:0C2F480000000000010203040607080955
:082F54008CD2FF7F0100000098
:082F5C008D2B0008C5010008DF
:042F6400A1010008BF
:102F68000024F400AAAAAAAA100000200000000069
:102F780000000000F851002060520020C8520020D4
:102F88000000000000000000000000000000000039
:102F98000000000000000000000000000000000029
:102FA8000000000000000000000000000000000019
:102FB8000000000000000000000000000000000009
:102FC80000000000000000000000000000000000F9
:102FD80000000000000000000000000000000000E9
:102FE80000000000000000000000000000000000D9
:102FF80000000000000000000000000000000000C9
:1030080000000000000000000100000000000000B7
:103018000E33CDAB34126DE6ECDE05000B0000007C
:103028000000000000000000000000000000000098
:103038000000000000000000000000000000000088
:103048000000000000000000000000000000000078
:103058000000000000000000000000000000000068
:103068000000000000000000000000000000000058
:103078000000000000000000000000000000000048
:103088000000000000000000000000000000000038
:103098000000000000000000000000000000000028
:1030A8000000000000000000000000000000000018
:1030B80035530020FFFFFFFF000002000000000062
:1030C800000000005C0100205C0100206401002079
:1030D800640100206C0100206C01002074010020B4
:1030E800740100207C0100207C0100208401002064
:1030F800840100208C0100208C0100209401002014
:10310800940100209C0100209C010020A4010020C3
:10311800A4010020AC010020AC010020B401002073
:10312800B4010020BC010020BC010020C401002023
:10313800C4010020CC010020CC010020D4010020D3
:10314800D4010020DC010020DC010020E401002083
:10315800E4010020EC010020EC010020F401002033
:10316800F4010020FC010020FC01002004020020E2
:10317800040200200C0200200C020020140200208F
:10318800140200201C0200201C020020240200203F
:10319800240200202C0200202C02002034020020EF
:1031A800340200203C0200203C020020440200209F
:1031B800440200204C0200204C020020540200204F
:1031C800540200205C0200205C02002064020020FF
:1031D800640200206C0200206C02002074020020AF
:1031E800740200207C0200207C020020840200205F
:1031F800840200208C0200208C020020940200200F
:10320800940200209C0200209C020020A4020020BE
:10321800A4020020AC020020AC020020B40200206E
:10322800B4020020BC020020BC020020C40200201E
:10323800C4020020CC020020CC020020D4020020CE
:10324800D4020020DC020020DC020020E40200207E
:10325800E4020020EC020020EC020020F40200202E
:10326800F4020020FC020020FC02002004030020DD
:10327800040300200C0300200C030020140300208A
:10328800140300201C0300201C030020240300203A
:10329800240300202C0300202C03002034030020EA
:1032A800340300203C0300203C030020440300209A
:1032B800440300204C0300204C030020540300204A
:1032C800540300205C0300205C03002064030020FA
:1032D800640300206C0300206C03002074030020AA
:1032E800740300207C0300207C030020840300205A
:1032F800840300208C0300208C030020940300200A
:10330800940300209C0300209C030020A4030020B9
:10331800A4030020AC030020AC030020B403002069
:10332800B4030020BC030020BC030020C403002019
:10333800C4030020CC030020CC030020D4030020C9
:10334800D4030020DC030020DC030020E403002079
:10335800E4030020EC030020EC030020F403002029
:10336800F4030020FC030020FC03002004040020D8
:10337800040400200C0400200C0400201404002085
:10338800140400201C0400201C0400202404002035
:10339800240400202C0400202C04002034040020E5
:1033A800340400203C0400203C0400204404002095
:1033B800440400204C0400204C0400205404002045
:1033C800540400205C0400205C04002064040020F5
:1033D800640400206C0400206C04002074040020A5
:1033E800740400207C0400207C0400208404002055
:1033F800840400208C0400208C0400209404002005
:10340800940400209C0400209C040020A4040020B4
:10341800A4040020AC040020AC040020B404002064
:10342800B4040020BC040020BC040020C404002014
:10343800C4040020CC040020CC040020D4040020C4
:10344800D4040020DC040020DC040020E404002074
:10345800E4040020EC040020EC040020F404002024
:10346800F4040020FC040020FC04002004050020D3
:10347800040500200C0500200C0500201405002080
:10348800140500201C0500201C0500202405002030
:10349800240500202C0500202C05002034050020E0
:1034A800340500203C0500203C0500204405002090
:1034B800440500204C0500204C0500205405002040
:0434C8005405002087
:0400000508000629C0
:00000001FF
